:1000000012C0189518951895189518951895189563
:100010001895189518951895189518951895189578
:100020001895189518958FE58DBFC8E3E0E24E2E20
:1000300084E08EBFD4E0F4E05F2EA89584B7082E4C
:10004000877F84BF88E1992781BD91BDEEEFF3E002
:10005000A0E6B0E088278D933197E9F766D0662453
:1000600086E886B980E087B94CD08CE0A6D0379A74
:1000700007B1007F07B96DD2A0E6B0E08D939C93E5
:10008000E0E6F0E0D190E080FF240027CBD2A2E6AA
:10009000B0E0A3D2EAEBF7E087D3E2E6F0E093D258
:1000A000EED2EDE0F0E0A2E6B0E060D28FEB11E03E
:1000B00037D0EEEBF7E01FD0E2E6F0E0552742E064
:1000C000A8E0B4E0B5D00FD0E2ECF7E014D08FE7B1
:1000D00011E026D0E4ECF7E00ED08AEF90E099D062
:1000E000C7CFF894FFCFA8E0B4E08D91882311F03A
:1000F0005ED0FBCF089536D2802D11F058D0FBCFC3
:10010000089581E05AD00ED080E857C08FE72130A3
:1001100039F08FEB223021F08FE8233009F08FEC9B
:10012000810F4BC083E0992774C08AEF90E071D0B3
:10013000B89AB99ABA9ABB9ABC9ABD9AC59885E002
:1001400090E067D0C498C098C198C29AC39AC49AE4
:10015000EF93FF93E4ECF0E050D0FF91EF91C4985F
:1001600055D0C49AEF93FF93E4ECF0E046D0FF91B2
:10017000EF91C4984BD0C49AEF93FF93E4ECF0E076
:100180003CD0FF91EF91C49841D0C398C49AEF93AB
:10019000FF93E4ECF0E031D0FF91EF91C49836D0BA
:1001A00088E20BD08EE009D086E007D00895C59A8A
:1001B000829505D004D02AD00895C598F9CF8595A9
:1001C00010F4C39A01C0C398859510F4C29A01C077
:1001D000C298859510F4C19A01C0C198859510F414
:1001E000C09A01C0C098C49AEF93FF93E4ECF0E08A
:1001F00004D0FF91EF91C49808953197F1F70895D5
:10020000689462F80895E89462F8089581E090E0B7
:1002100000C0EF93FF93EE27E82BE92B31F0E0EDE0
:10022000F7E03197F1F70197D1F7FF91EF9108953A
:10023000CAD1E6D117FF03C08DE28D931127003894
:1002400019F4ECEEF4E080C10F3741F4FF2019F40B
:10025000E2EEF4E0F8CFEEEDF4E0F5CF4A934A9306
:100260004A935A93BA93AA93BB270F5FCAF4BB274A
:10027000802F0A95CFD18D3E70F4ECE3F5E0A3E03A
:1002800093D288D1BB1FB0FF04C070978DD250D2DB
:100290003C96AA95A9F7E8E3F5E086D249D21DC0BD
:1002A000093028F1033148F10A3130F418E08BE1CC
:1002B00092E9E0EFF4E028C00A95ACD1E0E3F5E084
:1002C000BFEFA3E071D266D1BB1FB0FD04C038966A
:1002D0006BD22ED23C97AA95A9F7B095BB0F90D1BF
:1002E000039513E08AEF99E0F816090740F413E04C
:1002F0008BE094E0E4E0F5E007C016E001C0B395C0
:1003000083E194E2E8EFF4E06A81BF3F19F4BB2790
:1003100011276260BD836A831C83A881B98160E371
:100320006D93A883B9836D93081B0195AA24BB2400
:100330006A816A7F002339F0F694E794D794B794E2
:10034000A7940A95F7CF19E000272ED2CC248FEF7F
:1003500074E0AC14B206D306E406F50630F0AC182F
:10036000B20AD30AE40AF50A21F1881F7A9531F01E
:100370005695479537952795C794EBCF809522D012
:1003800041F0969510F7FE2CED2CDB2CBA2CAA240C
:10039000DCCF25D05D813C812B8170D0277021F08E
:1003A0002BD06CD0E8F301C03CD04CD078D026964E
:1003B00008958894881F7A95E9F7809503D049F3CA
:1003C0008827FCCF806360FD06C0803311F0616038
:1003D00002C0039561FD8D9360FD1A9508959927DC
:1003E0008E919C9385338E9108F083958A3308F023
:1003F00080E38C93C0F70895732F720F61FF701B19
:100400000AD01296785019F050F38E9380E38E93B1
:100410007150EAF70895A881B981A70F8827B81FFE
:10042000089579E061FD700FF6DF48E0431B400F4F
:100430008AF381F399274A9569F38E91803351F7B6
:100440009C93F9CF732F61FF701B7395A881B981BD
:10045000EA2FFB2F11978191803361FF09F08D9373
:100460007A9511F48EE28D9381918823C1F77723D9
:1004700011F480E38D9388278C930895889462FD0E
:100480000895002359F4A881B9818C91803331F00B
:10049000552321F0539533506460089408955523F3
:1004A000E9F085E48D931AF48DE28D935195652FD3
:1004B000660F560F5A3010F060E503D068E001D0A7
:1004C000DACF8FEF74E0561708F0561B881F7A9525
:1004D00011F06695F8CF809580638D9308954E4115
:1004E0004E00496E66696E6974790000302E3000E6
:1004F00000404B4C0020A107000050C300008813AF
:100500000000F4010000003200000005000080003F
:10051000CCCCCC0C14AE47019CC42000DC460300BC
:10052000E353000063080000D7000000150000003E
:100530001CC25367A5D468530024744915BE9A178A
:10054000CCBC8C2BBD3786350DD00D920020E1F749
:100550000895369A3699FECF369A3699FECF84B1F1
:1005600095B10895C89531960020089594E0819141
:100570008D939A95E1F70895B7FE089590E8B9161E
:1005800011F4D0FE08959FEFD91AE90AF90A09F487
:10059000039508950F928F939F93D216E306F40666
:1005A0000FB680E890E8802795270FBE890739F0BD
:1005B0000FB6892B87FD02C081E008260FBE9F91F0
:1005C0008F910F900895D190E190F190019108954D
:1005D00021913191419151910895DD92ED92FD92D9
:1005E0000C930895502F2D2D3E2D4F2D612F0895E2
:1005F000652F90E8440F551F5927990F479560784C
:10060000102F90E8FF0C001F0927990FF79410781E
:1006100000380895FF0C90E89027110F9795F794F4
:10062000092F08951127BD2CDE2CEF2CF02E0EE1A2
:10063000FF2039F4FE2CED2CDB2CBB240850C2F734
:1006400052C032F00A95BB0CDD1CEE1CFF1CF9CF2A
:1006500093DFE0CF2DEC3CEC4CEC5DE366270FC064
:10066000B2DFC0DFDD24EE2490E8F92E0FE307C0EF
:10067000AFDF05C02227332740E251E46627552328
:1006800051F1002381F1B4DF71F116270058505861
:100690000894050B18F407FD03C025C007FD23C00F
:1006A000469537952795F694E794D79425D0FF2063
:1006B0002AF0DD0CEE1CFF1C015073F09D2D969569
:1006C00048F0DD203AF4EE202AF491E0D90E992783
:1006D000E91EF91E9FCF07C09FE7092FF92A9FEF58
:1006E000D92EE92E0895DD24EE24FF2400271127BA
:1006F00008950FE79FEFF2CF9F929924AA24BB247D
:1007000088E1D216E306F40628F0D21AE30AF40AC6
:10071000089401C08894991CAA1CBB1CDD0CEE1C1B
:10072000FF1C8A9571F7D92CEA2CFB2C9F90089519
:100730005FDFD1F05038C1F016270058952F905840
:100740000894091F12F418F40EC008F00DC00DD063
:10075000FF202AF0BB0CDD1CEE1CFF1C02C0039521
:1007600013F00ADF57CFB8CFBECF9F92FF92EF9220
:100770008D2DFF24EE24DD24BB2493E0849F100103
:10078000829FB00CD11CE21CF31C839FD00CE11C97
:100790002224F21C9A9531F0BD2CDE2CEF2CFF2484
:1007A0008F91ECCF9F900895DDDE202DDBDE302D84
:1007B000D9DE402DD7DE502D089500802A424149D0
:1007C0003A005600416E616C6F6720496E70757417
:0207D0003A00ED
:00000001FF
